{
  "_format": "hh-sol-artifact-1",
  "contractName": "NFT",
  "sourceName": "contracts/NFT.sol",
  "abi": [
    {
      "inputs": [],
      "stateMutability": "nonpayable",
      "type": "constructor"
    },
    {
      "anonymous": false,
      "inputs": [
        {
          "indexed": true,
          "internalType": "address",
          "name": "owner",
          "type": "address"
        },
        {
          "indexed": true,
          "internalType": "address",
          "name": "approved",
          "type": "address"
        },
        {
          "indexed": true,
          "internalType": "uint256",
          "name": "tokenId",
          "type": "uint256"
        }
      ],
      "name": "Approval",
      "type": "event"
    },
    {
      "anonymous": false,
      "inputs": [
        {
          "indexed": true,
          "internalType": "address",
          "name": "owner",
          "type": "address"
        },
        {
          "indexed": true,
          "internalType": "address",
          "name": "operator",
          "type": "address"
        },
        {
          "indexed": false,
          "internalType": "bool",
          "name": "approved",
          "type": "bool"
        }
      ],
      "name": "ApprovalForAll",
      "type": "event"
    },
    {
      "anonymous": false,
      "inputs": [
        {
          "indexed": true,
          "internalType": "address",
          "name": "previousOwner",
          "type": "address"
        },
        {
          "indexed": true,
          "internalType": "address",
          "name": "newOwner",
          "type": "address"
        }
      ],
      "name": "OwnershipTransferred",
      "type": "event"
    },
    {
      "anonymous": false,
      "inputs": [
        {
          "indexed": true,
          "internalType": "address",
          "name": "from",
          "type": "address"
        },
        {
          "indexed": true,
          "internalType": "address",
          "name": "to",
          "type": "address"
        },
        {
          "indexed": true,
          "internalType": "uint256",
          "name": "tokenId",
          "type": "uint256"
        }
      ],
      "name": "Transfer",
      "type": "event"
    },
    {
      "inputs": [
        {
          "internalType": "address",
          "name": "to",
          "type": "address"
        },
        {
          "internalType": "uint256",
          "name": "tokenId",
          "type": "uint256"
        }
      ],
      "name": "approve",
      "outputs": [],
      "stateMutability": "nonpayable",
      "type": "function"
    },
    {
      "inputs": [
        {
          "internalType": "address",
          "name": "owner",
          "type": "address"
        }
      ],
      "name": "balanceOf",
      "outputs": [
        {
          "internalType": "uint256",
          "name": "",
          "type": "uint256"
        }
      ],
      "stateMutability": "view",
      "type": "function"
    },
    {
      "inputs": [
        {
          "internalType": "uint256",
          "name": "tokenId",
          "type": "uint256"
        }
      ],
      "name": "getApproved",
      "outputs": [
        {
          "internalType": "address",
          "name": "",
          "type": "address"
        }
      ],
      "stateMutability": "view",
      "type": "function"
    },
    {
      "inputs": [
        {
          "internalType": "address",
          "name": "owner",
          "type": "address"
        },
        {
          "internalType": "address",
          "name": "operator",
          "type": "address"
        }
      ],
      "name": "isApprovedForAll",
      "outputs": [
        {
          "internalType": "bool",
          "name": "",
          "type": "bool"
        }
      ],
      "stateMutability": "view",
      "type": "function"
    },
    {
      "inputs": [],
      "name": "name",
      "outputs": [
        {
          "internalType": "string",
          "name": "",
          "type": "string"
        }
      ],
      "stateMutability": "view",
      "type": "function"
    },
    {
      "inputs": [],
      "name": "owner",
      "outputs": [
        {
          "internalType": "address",
          "name": "",
          "type": "address"
        }
      ],
      "stateMutability": "view",
      "type": "function"
    },
    {
      "inputs": [
        {
          "internalType": "uint256",
          "name": "tokenId",
          "type": "uint256"
        }
      ],
      "name": "ownerOf",
      "outputs": [
        {
          "internalType": "address",
          "name": "",
          "type": "address"
        }
      ],
      "stateMutability": "view",
      "type": "function"
    },
    {
      "inputs": [],
      "name": "renounceOwnership",
      "outputs": [],
      "stateMutability": "nonpayable",
      "type": "function"
    },
    {
      "inputs": [
        {
          "internalType": "address",
          "name": "to",
          "type": "address"
        },
        {
          "internalType": "string",
          "name": "uri",
          "type": "string"
        }
      ],
      "name": "safeMint",
      "outputs": [],
      "stateMutability": "nonpayable",
      "type": "function"
    },
    {
      "inputs": [
        {
          "internalType": "address",
          "name": "from",
          "type": "address"
        },
        {
          "internalType": "address",
          "name": "to",
          "type": "address"
        },
        {
          "internalType": "uint256",
          "name": "tokenId",
          "type": "uint256"
        }
      ],
      "name": "safeTransferFrom",
      "outputs": [],
      "stateMutability": "nonpayable",
      "type": "function"
    },
    {
      "inputs": [
        {
          "internalType": "address",
          "name": "from",
          "type": "address"
        },
        {
          "internalType": "address",
          "name": "to",
          "type": "address"
        },
        {
          "internalType": "uint256",
          "name": "tokenId",
          "type": "uint256"
        },
        {
          "internalType": "bytes",
          "name": "_data",
          "type": "bytes"
        }
      ],
      "name": "safeTransferFrom",
      "outputs": [],
      "stateMutability": "nonpayable",
      "type": "function"
    },
    {
      "inputs": [
        {
          "internalType": "address",
          "name": "operator",
          "type": "address"
        },
        {
          "internalType": "bool",
          "name": "approved",
          "type": "bool"
        }
      ],
      "name": "setApprovalForAll",
      "outputs": [],
      "stateMutability": "nonpayable",
      "type": "function"
    },
    {
      "inputs": [
        {
          "internalType": "bytes4",
          "name": "interfaceId",
          "type": "bytes4"
        }
      ],
      "name": "supportsInterface",
      "outputs": [
        {
          "internalType": "bool",
          "name": "",
          "type": "bool"
        }
      ],
      "stateMutability": "view",
      "type": "function"
    },
    {
      "inputs": [],
      "name": "symbol",
      "outputs": [
        {
          "internalType": "string",
          "name": "",
          "type": "string"
        }
      ],
      "stateMutability": "view",
      "type": "function"
    },
    {
      "inputs": [
        {
          "internalType": "uint256",
          "name": "index",
          "type": "uint256"
        }
      ],
      "name": "tokenByIndex",
      "outputs": [
        {
          "internalType": "uint256",
          "name": "",
          "type": "uint256"
        }
      ],
      "stateMutability": "view",
      "type": "function"
    },
    {
      "inputs": [
        {
          "internalType": "address",
          "name": "owner",
          "type": "address"
        },
        {
          "internalType": "uint256",
          "name": "index",
          "type": "uint256"
        }
      ],
      "name": "tokenOfOwnerByIndex",
      "outputs": [
        {
          "internalType": "uint256",
          "name": "",
          "type": "uint256"
        }
      ],
      "stateMutability": "view",
      "type": "function"
    },
    {
      "inputs": [
        {
          "internalType": "uint256",
          "name": "tokenId",
          "type": "uint256"
        }
      ],
      "name": "tokenURI",
      "outputs": [
        {
          "internalType": "string",
          "name": "",
          "type": "string"
        }
      ],
      "stateMutability": "view",
      "type": "function"
    },
    {
      "inputs": [],
      "name": "totalSupply",
      "outputs": [
        {
          "internalType": "uint256",
          "name": "",
          "type": "uint256"
        }
      ],
      "stateMutability": "view",
      "type": "function"
    },
    {
      "inputs": [
        {
          "internalType": "address",
          "name": "from",
          "type": "address"
        },
        {
          "internalType": "address",
          "name": "to",
          "type": "address"
        },
        {
          "internalType": "uint256",
          "name": "tokenId",
          "type": "uint256"
        }
      ],
      "name": "transferFrom",
      "outputs": [],
      "stateMutability": "nonpayable",
      "type": "function"
    },
    {
      "inputs": [
        {
          "internalType": "address",
          "name": "newOwner",
          "type": "address"
        }
      ],
      "name": "transferOwnership",
      "outputs": [],
      "stateMutability": "nonpayable",
      "type": "function"
    }
  ],
  "bytecode": "0x60806040523480156200001157600080fd5b506040518060400160405280600381526020017f4e465400000000000000000000000000000000000000000000000000000000008152506040518060400160405280600381526020017f4e46540000000000000000000000000000000000000000000000000000000000815250816000908051906020019062000096929190620001a6565b508060019080519060200190620000af929190620001a6565b505050620000d2620000c6620000d860201b60201c565b620000e060201b60201c565b620002bb565b600033905090565b6000600b60009054906101000a900473ffffffffffffffffffffffffffffffffffffffff16905081600b60006101000a81548173ffffffffffffffffffffffffffffffffffffffff021916908373ffffffffffffffffffffffffffffffffffffffff1602179055508173ffffffffffffffffffffffffffffffffffffffff168173ffffffffffffffffffffffffffffffffffffffff167f8be0079c531659141344cd1fd0a4f28419497f9722a3daafe3b4186f6b6457e060405160405180910390a35050565b828054620001b49062000256565b90600052602060002090601f016020900481019282620001d8576000855562000224565b82601f10620001f357805160ff191683800117855562000224565b8280016001018555821562000224579182015b828111156200022357825182559160200191906001019062000206565b5b50905062000233919062000237565b5090565b5b808211156200025257600081600090555060010162000238565b5090565b600060028204905060018216806200026f57607f821691505b602082108114156200028657620002856200028c565b5b50919050565b7f4e487b7100000000000000000000000000000000000000000000000000000000600052602260045260246000fd5b61388d80620002cb6000396000f3fe608060405234801561001057600080fd5b506004361061012c5760003560e01c806370a08231116100ad578063b88d4fde11610071578063b88d4fde14610343578063c87b56dd1461035f578063d204c45e1461038f578063e985e9c5146103ab578063f2fde38b146103db5761012c565b806370a08231146102b1578063715018a6146102e15780638da5cb5b146102eb57806395d89b4114610309578063a22cb465146103275761012c565b806323b872dd116100f457806323b872dd146101e95780632f745c591461020557806342842e0e146102355780634f6ccce7146102515780636352211e146102815761012c565b806301ffc9a71461013157806306fdde0314610161578063081812fc1461017f578063095ea7b3146101af57806318160ddd146101cb575b600080fd5b61014b60048036038101906101469190612718565b6103f7565b6040516101589190612baa565b60405180910390f35b610169610409565b6040516101769190612bc5565b60405180910390f35b6101996004803603810190610194919061276a565b61049b565b6040516101a69190612b43565b60405180910390f35b6101c960048036038101906101c491906126dc565b610520565b005b6101d3610638565b6040516101e09190612e67565b60405180910390f35b61020360048036038101906101fe9190612582565b610645565b005b61021f600480360381019061021a91906126dc565b6106a5565b60405161022c9190612e67565b60405180910390f35b61024f600480360381019061024a9190612582565b61074a565b005b61026b6004803603810190610266919061276a565b61076a565b6040516102789190612e67565b60405180910390f35b61029b6004803603810190610296919061276a565b610801565b6040516102a89190612b43565b60405180910390f35b6102cb60048036038101906102c6919061251d565b6108b3565b6040516102d89190612e67565b60405180910390f35b6102e961096b565b005b6102f36109f3565b6040516103009190612b43565b60405180910390f35b610311610a1d565b60405161031e9190612bc5565b60405180910390f35b610341600480360381019061033c919061264c565b610aaf565b005b61035d600480360381019061035891906125d1565b610ac5565b005b6103796004803603810190610374919061276a565b610b27565b6040516103869190612bc5565b60405180910390f35b6103a960048036038101906103a49190612688565b610b39565b005b6103c560048036038101906103c09190612546565b610be6565b6040516103d29190612baa565b60405180910390f35b6103f560048036038101906103f0919061251d565b610c7a565b005b600061040282610d72565b9050919050565b606060008054610418906130bd565b80601f0160208091040260200160405190810160405280929190818152602001828054610444906130bd565b80156104915780601f1061046657610100808354040283529160200191610491565b820191906000526020600020905b81548152906001019060200180831161047457829003601f168201915b5050505050905090565b60006104a682610dec565b6104e5576040517f08c379a00000000000000000000000000000000000000000000000000000000081526004016104dc90612da7565b60405180910390fd5b6004600083815260200190815260200160002060009054906101000a900473ffffffffffffffffffffffffffffffffffffffff169050919050565b600061052b82610801565b90508073ffffffffffffffffffffffffffffffffffffffff168373ffffffffffffffffffffffffffffffffffffffff16141561059c576040517f08c379a000000000000000000000000000000000000000000000000000000000815260040161059390612e07565b60405180910390fd5b8073ffffffffffffffffffffffffffffffffffffffff166105bb610e58565b73ffffffffffffffffffffffffffffffffffffffff1614806105ea57506105e9816105e4610e58565b610be6565b5b610629576040517f08c379a000000000000000000000000000000000000000000000000000000000815260040161062090612ce7565b60405180910390fd5b6106338383610e60565b505050565b6000600880549050905090565b610656610650610e58565b82610f19565b610695576040517f08c379a000000000000000000000000000000000000000000000000000000000815260040161068c90612e27565b60405180910390fd5b6106a0838383610ff7565b505050565b60006106b0836108b3565b82106106f1576040517f08c379a00000000000000000000000000000000000000000000000000000000081526004016106e890612be7565b60405180910390fd5b600660008473ffffffffffffffffffffffffffffffffffffffff1673ffffffffffffffffffffffffffffffffffffffff168152602001908152602001600020600083815260200190815260200160002054905092915050565b61076583838360405180602001604052806000815250610ac5565b505050565b6000610774610638565b82106107b5576040517f08c379a00000000000000000000000000000000000000000000000000000000081526004016107ac90612e47565b60405180910390fd5b600882815481106107ef577f4e487b7100000000000000000000000000000000000000000000000000000000600052603260045260246000fd5b90600052602060002001549050919050565b6000806002600084815260200190815260200160002060009054906101000a900473ffffffffffffffffffffffffffffffffffffffff169050600073ffffffffffffffffffffffffffffffffffffffff168173ffffffffffffffffffffffffffffffffffffffff1614156108aa576040517f08c379a00000000000000000000000000000000000000000000000000000000081526004016108a190612d27565b60405180910390fd5b80915050919050565b60008073ffffffffffffffffffffffffffffffffffffffff168273ffffffffffffffffffffffffffffffffffffffff161415610924576040517f08c379a000000000000000000000000000000000000000000000000000000000815260040161091b90612d07565b60405180910390fd5b600360008373ffffffffffffffffffffffffffffffffffffffff1673ffffffffffffffffffffffffffffffffffffffff168152602001908152602001600020549050919050565b610973610e58565b73ffffffffffffffffffffffffffffffffffffffff166109916109f3565b73ffffffffffffffffffffffffffffffffffffffff16146109e7576040517f08c379a00000000000000000000000000000000000000000000000000000000081526004016109de90612dc7565b60405180910390fd5b6109f1600061125e565b565b6000600b60009054906101000a900473ffffffffffffffffffffffffffffffffffffffff16905090565b606060018054610a2c906130bd565b80601f0160208091040260200160405190810160405280929190818152602001828054610a58906130bd565b8015610aa55780601f10610a7a57610100808354040283529160200191610aa5565b820191906000526020600020905b815481529060010190602001808311610a8857829003601f168201915b5050505050905090565b610ac1610aba610e58565b8383611324565b5050565b610ad6610ad0610e58565b83610f19565b610b15576040517f08c379a0000000000000000000000000000000000000000000000000000000008152600401610b0c90612e27565b60405180910390fd5b610b2184848484611491565b50505050565b6060610b32826114ed565b9050919050565b610b41610e58565b73ffffffffffffffffffffffffffffffffffffffff16610b5f6109f3565b73ffffffffffffffffffffffffffffffffffffffff1614610bb5576040517f08c379a0000000000000000000000000000000000000000000000000000000008152600401610bac90612dc7565b60405180910390fd5b6000610bc1600c61163f565b9050610bcd600c61164d565b610bd78382611663565b610be18183611681565b505050565b6000600560008473ffffffffffffffffffffffffffffffffffffffff1673ffffffffffffffffffffffffffffffffffffffff16815260200190815260200160002060008373ffffffffffffffffffffffffffffffffffffffff1673ffffffffffffffffffffffffffffffffffffffff16815260200190815260200160002060009054906101000a900460ff16905092915050565b610c82610e58565b73ffffffffffffffffffffffffffffffffffffffff16610ca06109f3565b73ffffffffffffffffffffffffffffffffffffffff1614610cf6576040517f08c379a0000000000000000000000000000000000000000000000000000000008152600401610ced90612dc7565b60405180910390fd5b600073ffffffffffffffffffffffffffffffffffffffff168173ffffffffffffffffffffffffffffffffffffffff161415610d66576040517f08c379a0000000000000000000000000000000000000000000000000000000008152600401610d5d90612c27565b60405180910390fd5b610d6f8161125e565b50565b60007f780e9d63000000000000000000000000000000000000000000000000000000007bffffffffffffffffffffffffffffffffffffffffffffffffffffffff1916827bffffffffffffffffffffffffffffffffffffffffffffffffffffffff19161480610de55750610de4826116f5565b5b9050919050565b60008073ffffffffffffffffffffffffffffffffffffffff166002600084815260200190815260200160002060009054906101000a900473ffffffffffffffffffffffffffffffffffffffff1673ffffffffffffffffffffffffffffffffffffffff1614159050919050565b600033905090565b816004600083815260200190815260200160002060006101000a81548173ffffffffffffffffffffffffffffffffffffffff021916908373ffffffffffffffffffffffffffffffffffffffff160217905550808273ffffffffffffffffffffffffffffffffffffffff16610ed383610801565b73ffffffffffffffffffffffffffffffffffffffff167f8c5be1e5ebec7d5bd14f71427d1e84f3dd0314c0f7b2291e5b200ac8c7c3b92560405160405180910390a45050565b6000610f2482610dec565b610f63576040517f08c379a0000000000000000000000000000000000000000000000000000000008152600401610f5a90612cc7565b60405180910390fd5b6000610f6e83610801565b90508073ffffffffffffffffffffffffffffffffffffffff168473ffffffffffffffffffffffffffffffffffffffff161480610fdd57508373ffffffffffffffffffffffffffffffffffffffff16610fc58461049b565b73ffffffffffffffffffffffffffffffffffffffff16145b80610fee5750610fed8185610be6565b5b91505092915050565b8273ffffffffffffffffffffffffffffffffffffffff1661101782610801565b73ffffffffffffffffffffffffffffffffffffffff161461106d576040517f08c379a000000000000000000000000000000000000000000000000000000000815260040161106490612c47565b60405180910390fd5b600073ffffffffffffffffffffffffffffffffffffffff168273ffffffffffffffffffffffffffffffffffffffff1614156110dd576040517f08c379a00000000000000000000000000000000000000000000000000000000081526004016110d490612c87565b60405180910390fd5b6110e88383836117d7565b6110f3600082610e60565b6001600360008573ffffffffffffffffffffffffffffffffffffffff1673ffffffffffffffffffffffffffffffffffffffff16815260200190815260200160002060008282546111439190612fd3565b925050819055506001600360008473ffffffffffffffffffffffffffffffffffffffff1673ffffffffffffffffffffffffffffffffffffffff168152602001908152602001600020600082825461119a9190612f4c565b92505081905550816002600083815260200190815260200160002060006101000a81548173ffffffffffffffffffffffffffffffffffffffff021916908373ffffffffffffffffffffffffffffffffffffffff160217905550808273ffffffffffffffffffffffffffffffffffffffff168473ffffffffffffffffffffffffffffffffffffffff167fddf252ad1be2c89b69c2b068fc378daa952ba7f163c4a11628f55a4df523b3ef60405160405180910390a46112598383836117e7565b505050565b6000600b60009054906101000a900473ffffffffffffffffffffffffffffffffffffffff16905081600b60006101000a81548173ffffffffffffffffffffffffffffffffffffffff021916908373ffffffffffffffffffffffffffffffffffffffff1602179055508173ffffffffffffffffffffffffffffffffffffffff168173ffffffffffffffffffffffffffffffffffffffff167f8be0079c531659141344cd1fd0a4f28419497f9722a3daafe3b4186f6b6457e060405160405180910390a35050565b8173ffffffffffffffffffffffffffffffffffffffff168373ffffffffffffffffffffffffffffffffffffffff161415611393576040517f08c379a000000000000000000000000000000000000000000000000000000000815260040161138a90612ca7565b60405180910390fd5b80600560008573ffffffffffffffffffffffffffffffffffffffff1673ffffffffffffffffffffffffffffffffffffffff16815260200190815260200160002060008473ffffffffffffffffffffffffffffffffffffffff1673ffffffffffffffffffffffffffffffffffffffff16815260200190815260200160002060006101000a81548160ff0219169083151502179055508173ffffffffffffffffffffffffffffffffffffffff168373ffffffffffffffffffffffffffffffffffffffff167f17307eab39ab6107e8899845ad3d59bd9653f200f220920489ca2b5937696c31836040516114849190612baa565b60405180910390a3505050565b61149c848484610ff7565b6114a8848484846117ec565b6114e7576040517f08c379a00000000000000000000000000000000000000000000000000000000081526004016114de90612c07565b60405180910390fd5b50505050565b60606114f882610dec565b611537576040517f08c379a000000000000000000000000000000000000000000000000000000000815260040161152e90612d87565b60405180910390fd5b6000600a60008481526020019081526020016000208054611557906130bd565b80601f0160208091040260200160405190810160405280929190818152602001828054611583906130bd565b80156115d05780601f106115a5576101008083540402835291602001916115d0565b820191906000526020600020905b8154815290600101906020018083116115b357829003601f168201915b5050505050905060006115e1611983565b90506000815114156115f757819250505061163a565b60008251111561162c578082604051602001611614929190612b1f565b6040516020818303038152906040529250505061163a565b6116358461199a565b925050505b919050565b600081600001549050919050565b6001816000016000828254019250508190555050565b61167d828260405180602001604052806000815250611a41565b5050565b61168a82610dec565b6116c9576040517f08c379a00000000000000000000000000000000000000000000000000000000081526004016116c090612d47565b60405180910390fd5b80600a600084815260200190815260200160002090805190602001906116f0929190612341565b505050565b60007f80ac58cd000000000000000000000000000000000000000000000000000000007bffffffffffffffffffffffffffffffffffffffffffffffffffffffff1916827bffffffffffffffffffffffffffffffffffffffffffffffffffffffff191614806117c057507f5b5e139f000000000000000000000000000000000000000000000000000000007bffffffffffffffffffffffffffffffffffffffffffffffffffffffff1916827bffffffffffffffffffffffffffffffffffffffffffffffffffffffff1916145b806117d057506117cf82611a9c565b5b9050919050565b6117e2838383611b06565b505050565b505050565b600061180d8473ffffffffffffffffffffffffffffffffffffffff16611c1a565b15611976578373ffffffffffffffffffffffffffffffffffffffff1663150b7a02611836610e58565b8786866040518563ffffffff1660e01b81526004016118589493929190612b5e565b602060405180830381600087803b15801561187257600080fd5b505af19250505080156118a357506040513d601f19601f820116820180604052508101906118a09190612741565b60015b611926573d80600081146118d3576040519150601f19603f3d011682016040523d82523d6000602084013e6118d8565b606091505b5060008151141561191e576040517f08c379a000000000000000000000000000000000000000000000000000000000815260040161191590612c07565b60405180910390fd5b805181602001fd5b63150b7a0260e01b7bffffffffffffffffffffffffffffffffffffffffffffffffffffffff1916817bffffffffffffffffffffffffffffffffffffffffffffffffffffffff19161491505061197b565b600190505b949350505050565b606060405180602001604052806000815250905090565b60606119a582610dec565b6119e4576040517f08c379a00000000000000000000000000000000000000000000000000000000081526004016119db90612de7565b60405180910390fd5b60006119ee611983565b90506000815111611a0e5760405180602001604052806000815250611a39565b80611a1884611c3d565b604051602001611a29929190612b1f565b6040516020818303038152906040525b915050919050565b611a4b8383611dea565b611a5860008484846117ec565b611a97576040517f08c379a0000000000000000000000000000000000000000000000000000000008152600401611a8e90612c07565b60405180910390fd5b505050565b60007f01ffc9a7000000000000000000000000000000000000000000000000000000007bffffffffffffffffffffffffffffffffffffffffffffffffffffffff1916827bffffffffffffffffffffffffffffffffffffffffffffffffffffffff1916149050919050565b611b11838383611fc4565b600073ffffffffffffffffffffffffffffffffffffffff168373ffffffffffffffffffffffffffffffffffffffff161415611b5457611b4f81611fc9565b611b93565b8173ffffffffffffffffffffffffffffffffffffffff168373ffffffffffffffffffffffffffffffffffffffff1614611b9257611b918382612012565b5b5b600073ffffffffffffffffffffffffffffffffffffffff168273ffffffffffffffffffffffffffffffffffffffff161415611bd657611bd18161217f565b611c15565b8273ffffffffffffffffffffffffffffffffffffffff168273ffffffffffffffffffffffffffffffffffffffff1614611c1457611c1382826122c2565b5b5b505050565b6000808273ffffffffffffffffffffffffffffffffffffffff163b119050919050565b60606000821415611c85576040518060400160405280600181526020017f30000000000000000000000000000000000000000000000000000000000000008152509050611de5565b600082905060005b60008214611cb7578080611ca090613120565b915050600a82611cb09190612fa2565b9150611c8d565b60008167ffffffffffffffff811115611cf9577f4e487b7100000000000000000000000000000000000000000000000000000000600052604160045260246000fd5b6040519080825280601f01601f191660200182016040528015611d2b5781602001600182028036833780820191505090505b5090505b60008514611dde57600182611d449190612fd3565b9150600a85611d539190613169565b6030611d5f9190612f4c565b60f81b818381518110611d9b577f4e487b7100000000000000000000000000000000000000000000000000000000600052603260045260246000fd5b60200101907effffffffffffffffffffffffffffffffffffffffffffffffffffffffffffff1916908160001a905350600a85611dd79190612fa2565b9450611d2f565b8093505050505b919050565b600073ffffffffffffffffffffffffffffffffffffffff168273ffffffffffffffffffffffffffffffffffffffff161415611e5a576040517f08c379a0000000000000000000000000000000000000000000000000000000008152600401611e5190612d67565b60405180910390fd5b611e6381610dec565b15611ea3576040517f08c379a0000000000000000000000000000000000000000000000000000000008152600401611e9a90612c67565b60405180910390fd5b611eaf600083836117d7565b6001600360008473ffffffffffffffffffffffffffffffffffffffff1673ffffffffffffffffffffffffffffffffffffffff1681526020019081526020016000206000828254611eff9190612f4c565b92505081905550816002600083815260200190815260200160002060006101000a81548173ffffffffffffffffffffffffffffffffffffffff021916908373ffffffffffffffffffffffffffffffffffffffff160217905550808273ffffffffffffffffffffffffffffffffffffffff16600073ffffffffffffffffffffffffffffffffffffffff167fddf252ad1be2c89b69c2b068fc378daa952ba7f163c4a11628f55a4df523b3ef60405160405180910390a4611fc0600083836117e7565b5050565b505050565b6008805490506009600083815260200190815260200160002081905550600881908060018154018082558091505060019003906000526020600020016000909190919091505550565b6000600161201f846108b3565b6120299190612fd3565b905060006007600084815260200190815260200160002054905081811461210e576000600660008673ffffffffffffffffffffffffffffffffffffffff1673ffffffffffffffffffffffffffffffffffffffff168152602001908152602001600020600084815260200190815260200160002054905080600660008773ffffffffffffffffffffffffffffffffffffffff1673ffffffffffffffffffffffffffffffffffffffff168152602001908152602001600020600084815260200190815260200160002081905550816007600083815260200190815260200160002081905550505b6007600084815260200190815260200160002060009055600660008573ffffffffffffffffffffffffffffffffffffffff1673ffffffffffffffffffffffffffffffffffffffff16815260200190815260200160002060008381526020019081526020016000206000905550505050565b600060016008805490506121939190612fd3565b90506000600960008481526020019081526020016000205490506000600883815481106121e9577f4e487b7100000000000000000000000000000000000000000000000000000000600052603260045260246000fd5b906000526020600020015490508060088381548110612231577f4e487b7100000000000000000000000000000000000000000000000000000000600052603260045260246000fd5b9060005260206000200181905550816009600083815260200190815260200160002081905550600960008581526020019081526020016000206000905560088054806122a6577f4e487b7100000000000000000000000000000000000000000000000000000000600052603160045260246000fd5b6001900381819060005260206000200160009055905550505050565b60006122cd836108b3565b905081600660008573ffffffffffffffffffffffffffffffffffffffff1673ffffffffffffffffffffffffffffffffffffffff168152602001908152602001600020600083815260200190815260200160002081905550806007600084815260200190815260200160002081905550505050565b82805461234d906130bd565b90600052602060002090601f01602090048101928261236f57600085556123b6565b82601f1061238857805160ff19168380011785556123b6565b828001600101855582156123b6579182015b828111156123b557825182559160200191906001019061239a565b5b5090506123c391906123c7565b5090565b5b808211156123e05760008160009055506001016123c8565b5090565b60006123f76123f284612ea7565b612e82565b90508281526020810184848401111561240f57600080fd5b61241a84828561307b565b509392505050565b600061243561243084612ed8565b612e82565b90508281526020810184848401111561244d57600080fd5b61245884828561307b565b509392505050565b60008135905061246f816137fb565b92915050565b60008135905061248481613812565b92915050565b60008135905061249981613829565b92915050565b6000815190506124ae81613829565b92915050565b600082601f8301126124c557600080fd5b81356124d58482602086016123e4565b91505092915050565b600082601f8301126124ef57600080fd5b81356124ff848260208601612422565b91505092915050565b60008135905061251781613840565b92915050565b60006020828403121561252f57600080fd5b600061253d84828501612460565b91505092915050565b6000806040838503121561255957600080fd5b600061256785828601612460565b925050602061257885828601612460565b9150509250929050565b60008060006060848603121561259757600080fd5b60006125a586828701612460565b93505060206125b686828701612460565b92505060406125c786828701612508565b9150509250925092565b600080600080608085870312156125e757600080fd5b60006125f587828801612460565b945050602061260687828801612460565b935050604061261787828801612508565b925050606085013567ffffffffffffffff81111561263457600080fd5b612640878288016124b4565b91505092959194509250565b6000806040838503121561265f57600080fd5b600061266d85828601612460565b925050602061267e85828601612475565b9150509250929050565b6000806040838503121561269b57600080fd5b60006126a985828601612460565b925050602083013567ffffffffffffffff8111156126c657600080fd5b6126d2858286016124de565b9150509250929050565b600080604083850312156126ef57600080fd5b60006126fd85828601612460565b925050602061270e85828601612508565b9150509250929050565b60006020828403121561272a57600080fd5b60006127388482850161248a565b91505092915050565b60006020828403121561275357600080fd5b60006127618482850161249f565b91505092915050565b60006020828403121561277c57600080fd5b600061278a84828501612508565b91505092915050565b61279c81613007565b82525050565b6127ab81613019565b82525050565b60006127bc82612f09565b6127c68185612f1f565b93506127d681856020860161308a565b6127df81613256565b840191505092915050565b60006127f582612f14565b6127ff8185612f30565b935061280f81856020860161308a565b61281881613256565b840191505092915050565b600061282e82612f14565b6128388185612f41565b935061284881856020860161308a565b80840191505092915050565b6000612861602b83612f30565b915061286c82613267565b604082019050919050565b6000612884603283612f30565b915061288f826132b6565b604082019050919050565b60006128a7602683612f30565b91506128b282613305565b604082019050919050565b60006128ca602583612f30565b91506128d582613354565b604082019050919050565b60006128ed601c83612f30565b91506128f8826133a3565b602082019050919050565b6000612910602483612f30565b915061291b826133cc565b604082019050919050565b6000612933601983612f30565b915061293e8261341b565b602082019050919050565b6000612956602c83612f30565b915061296182613444565b604082019050919050565b6000612979603883612f30565b915061298482613493565b604082019050919050565b600061299c602a83612f30565b91506129a7826134e2565b604082019050919050565b60006129bf602983612f30565b91506129ca82613531565b604082019050919050565b60006129e2602e83612f30565b91506129ed82613580565b604082019050919050565b6000612a05602083612f30565b9150612a10826135cf565b602082019050919050565b6000612a28603183612f30565b9150612a33826135f8565b604082019050919050565b6000612a4b602c83612f30565b9150612a5682613647565b604082019050919050565b6000612a6e602083612f30565b9150612a7982613696565b602082019050919050565b6000612a91602f83612f30565b9150612a9c826136bf565b604082019050919050565b6000612ab4602183612f30565b9150612abf8261370e565b604082019050919050565b6000612ad7603183612f30565b9150612ae28261375d565b604082019050919050565b6000612afa602c83612f30565b9150612b05826137ac565b604082019050919050565b612b1981613071565b82525050565b6000612b2b8285612823565b9150612b378284612823565b91508190509392505050565b6000602082019050612b586000830184612793565b92915050565b6000608082019050612b736000830187612793565b612b806020830186612793565b612b8d6040830185612b10565b8181036060830152612b9f81846127b1565b905095945050505050565b6000602082019050612bbf60008301846127a2565b92915050565b60006020820190508181036000830152612bdf81846127ea565b905092915050565b60006020820190508181036000830152612c0081612854565b9050919050565b60006020820190508181036000830152612c2081612877565b9050919050565b60006020820190508181036000830152612c408161289a565b9050919050565b60006020820190508181036000830152612c60816128bd565b9050919050565b60006020820190508181036000830152612c80816128e0565b9050919050565b60006020820190508181036000830152612ca081612903565b9050919050565b60006020820190508181036000830152612cc081612926565b9050919050565b60006020820190508181036000830152612ce081612949565b9050919050565b60006020820190508181036000830152612d008161296c565b9050919050565b60006020820190508181036000830152612d208161298f565b9050919050565b60006020820190508181036000830152612d40816129b2565b9050919050565b60006020820190508181036000830152612d60816129d5565b9050919050565b60006020820190508181036000830152612d80816129f8565b9050919050565b60006020820190508181036000830152612da081612a1b565b9050919050565b60006020820190508181036000830152612dc081612a3e565b9050919050565b60006020820190508181036000830152612de081612a61565b9050919050565b60006020820190508181036000830152612e0081612a84565b9050919050565b60006020820190508181036000830152612e2081612aa7565b9050919050565b60006020820190508181036000830152612e4081612aca565b9050919050565b60006020820190508181036000830152612e6081612aed565b9050919050565b6000602082019050612e7c6000830184612b10565b92915050565b6000612e8c612e9d565b9050612e9882826130ef565b919050565b6000604051905090565b600067ffffffffffffffff821115612ec257612ec1613227565b5b612ecb82613256565b9050602081019050919050565b600067ffffffffffffffff821115612ef357612ef2613227565b5b612efc82613256565b9050602081019050919050565b600081519050919050565b600081519050919050565b600082825260208201905092915050565b600082825260208201905092915050565b600081905092915050565b6000612f5782613071565b9150612f6283613071565b9250827fffffffffffffffffffffffffffffffffffffffffffffffffffffffffffffffff03821115612f9757612f9661319a565b5b828201905092915050565b6000612fad82613071565b9150612fb883613071565b925082612fc857612fc76131c9565b5b828204905092915050565b6000612fde82613071565b9150612fe983613071565b925082821015612ffc57612ffb61319a565b5b828203905092915050565b600061301282613051565b9050919050565b60008115159050919050565b60007fffffffff0000000000000000000000000000000000000000000000000000000082169050919050565b600073ffffffffffffffffffffffffffffffffffffffff82169050919050565b6000819050919050565b82818337600083830152505050565b60005b838110156130a857808201518184015260208101905061308d565b838111156130b7576000848401525b50505050565b600060028204905060018216806130d557607f821691505b602082108114156130e9576130e86131f8565b5b50919050565b6130f882613256565b810181811067ffffffffffffffff8211171561311757613116613227565b5b80604052505050565b600061312b82613071565b91507fffffffffffffffffffffffffffffffffffffffffffffffffffffffffffffffff82141561315e5761315d61319a565b5b600182019050919050565b600061317482613071565b915061317f83613071565b92508261318f5761318e6131c9565b5b828206905092915050565b7f4e487b7100000000000000000000000000000000000000000000000000000000600052601160045260246000fd5b7f4e487b7100000000000000000000000000000000000000000000000000000000600052601260045260246000fd5b7f4e487b7100000000000000000000000000000000000000000000000000000000600052602260045260246000fd5b7f4e487b7100000000000000000000000000000000000000000000000000000000600052604160045260246000fd5b6000601f19601f8301169050919050565b7f455243373231456e756d657261626c653a206f776e657220696e646578206f7560008201527f74206f6620626f756e6473000000000000000000000000000000000000000000602082015250565b7f4552433732313a207472616e7366657220746f206e6f6e20455243373231526560008201527f63656976657220696d706c656d656e7465720000000000000000000000000000602082015250565b7f4f776e61626c653a206e6577206f776e657220697320746865207a65726f206160008201527f6464726573730000000000000000000000000000000000000000000000000000602082015250565b7f4552433732313a207472616e736665722066726f6d20696e636f72726563742060008201527f6f776e6572000000000000000000000000000000000000000000000000000000602082015250565b7f4552433732313a20746f6b656e20616c7265616479206d696e74656400000000600082015250565b7f4552433732313a207472616e7366657220746f20746865207a65726f2061646460008201527f7265737300000000000000000000000000000000000000000000000000000000602082015250565b7f4552433732313a20617070726f766520746f2063616c6c657200000000000000600082015250565b7f4552433732313a206f70657261746f7220717565727920666f72206e6f6e657860008201527f697374656e7420746f6b656e0000000000000000000000000000000000000000602082015250565b7f4552433732313a20617070726f76652063616c6c6572206973206e6f74206f7760008201527f6e6572206e6f7220617070726f76656420666f7220616c6c0000000000000000602082015250565b7f4552433732313a2062616c616e636520717565727920666f7220746865207a6560008201527f726f206164647265737300000000000000000000000000000000000000000000602082015250565b7f4552433732313a206f776e657220717565727920666f72206e6f6e657869737460008201527f656e7420746f6b656e0000000000000000000000000000000000000000000000602082015250565b7f45524337323155524953746f726167653a2055524920736574206f66206e6f6e60008201527f6578697374656e7420746f6b656e000000000000000000000000000000000000602082015250565b7f4552433732313a206d696e7420746f20746865207a65726f2061646472657373600082015250565b7f45524337323155524953746f726167653a2055524920717565727920666f722060008201527f6e6f6e6578697374656e7420746f6b656e000000000000000000000000000000602082015250565b7f4552433732313a20617070726f76656420717565727920666f72206e6f6e657860008201527f697374656e7420746f6b656e0000000000000000000000000000000000000000602082015250565b7f4f776e61626c653a2063616c6c6572206973206e6f7420746865206f776e6572600082015250565b7f4552433732314d657461646174613a2055524920717565727920666f72206e6f60008201527f6e6578697374656e7420746f6b656e0000000000000000000000000000000000602082015250565b7f4552433732313a20617070726f76616c20746f2063757272656e74206f776e6560008201527f7200000000000000000000000000000000000000000000000000000000000000602082015250565b7f4552433732313a207472616e736665722063616c6c6572206973206e6f74206f60008201527f776e6572206e6f7220617070726f766564000000000000000000000000000000602082015250565b7f455243373231456e756d657261626c653a20676c6f62616c20696e646578206f60008201527f7574206f6620626f756e64730000000000000000000000000000000000000000602082015250565b61380481613007565b811461380f57600080fd5b50565b61381b81613019565b811461382657600080fd5b50565b61383281613025565b811461383d57600080fd5b50565b61384981613071565b811461385457600080fd5b5056fea264697066735822122054f91b94f3e44070bc1b7a7715e58f03f8469a88b25ea703749cccfc16a2665264736f6c63430008040033",
  "linkReferences": {},
  "deployedLinkReferences": {}
}